:020000040800F2
:100000000028002021030008710300087103000884
:10001000710300087103000871030008000000006C
:100020000000000000000000000000007103000854
:10003000710300080000000071030008710300084C
:1000400071030008710300087103000871030008C0
:1000500071030008710300087103000871030008B0
:1000600071030008710300087103000871030008A0
:100070007103000871030008710300087103000890
:100080007103000871030008710300087103000880
:100090007103000871030008710300087103000870
:1000A0007103000871030008710300087103000860
:1000B0007103000871030008710300087103000850
:1000C0007103000871030008710300087103000840
:1000D0007103000871030008710300087103000830
:1000E000710300087103000800000000710300089C
:1000F0007103000871030008710300087103000810
:1001000071030008710300087103000871030008FF
:1001100071030008710300087103000871030008EF
:1001200071030008710300087103000871030008DF
:1001300010B5054C237833B9044B13B10448AFF321
:1001400000800123237010BD00000020000000008B
:10015000BC03000808B5034B1BB103490348AFF3C8
:10016000008008BD0000000004000020BC0300085F
:1001700080B400AF074B1B68064A43F004031360CA
:10018000044B1B68034A43F00803136000BFBD46DD
:1001900080BC70471810024080B400AF394B002279
:1001A0001A60394B1B68384A43F010031360364B12
:1001B0001B68354A23F020031360334B1B68324A17
:1001C00023F040031360304B1B682F4A23F0800359
:1001D00013602E4B1B682D4A43F4801313602B4B86
:1001E0001B682A4A23F400131360284B1B68274A14
:1001F00023F480031360254B1B68244A23F4000377
:100200001360234B1B68224A23F010031360204B1A
:100210001B681F4A23F0200313601D4B1B681C4AF8
:1002200043F0400313601A4B1B68194A23F0800304
:100230001360184B1B68174A23F480131360154B87
:100240001B68144A23F400131360124B1B68114AF5
:1002500043F4800313600F4B1B680E4A23F4000322
:1002600013600D4B1B680C4A43F0020313600A4BEA
:100270001B68094A43F40053136000BFBD4680BCAD
:10028000704700BF0C080140000C0140040C014005
:1002900000080140040801400C0C014080B582B008
:1002A00000AFFFF765FFFFF777FF1B4B1B6803F0FD
:1002B0000203022B17D0194B1B68184A83F0020364
:1002C000136000237B6002E07B6801337B607B6806
:1002D00041F287329342F7D900BF0F4B1B6803F0FE
:1002E0000203022BF9D10C4B1B6803F40053B3F546
:1002F000005F05D1094B1B68084A83F40053136063
:1003000000233B6002E03B6801333B603B6841F205
:1003100087329342F7D9C8E7080801400C0C014026
:100320000D488546AFF300800C480D490D4A002367
:1003300002E0D458C4500433C4188C42F9D30A4A9A
:100340000A4C002301E013600432A242FBD300F008
:1003500011F8FFF7A3FFFEE70028002000000020AF
:1003600000000020DC030008000000201C0000202A
:10037000FEE7000070B500260C4D0D4C641BA41068
:10038000A64209D100F01AF800260A4D0A4C641B57
:10039000A410A64205D170BD55F8043B984701361C
:1003A000EEE755F8043B98470136F2E7D40300081E
:1003B000D4030008D4030008D8030008F8B500BF30
:1003C000F8BC08BC9E467047F8B500BFF8BC08BC36
:0403D0009E4670478E
:0403D40055010008C7
:0403D80031010008E7
:0400000508000321CB
:00000001FF
