:100000000C942A000C9434000C9434000C943400AA
:100010000C9434000C9434000C9434000C94340090
:100020000C9434000C9434000C9434000C94340080
:100030000C9434000C9434000C9434000C94340070
:100040000C9434000C9434000C9434000C94340060
:100050000C94340011241FBECFE5D8E0DEBFCDBF25
:100060000E9440000C948B000C94000081B38062CD
:1000700081BB81B3806481BB81B3806881BB0895FB
:100080000E94360082B3806282BB2FEF89E698E13E
:10009000215080409040E1F700C0000082B38064AE
:1000A00082BB2FEF89E698E1215080409040E1F734
:1000B00000C0000082B3806882BB2FEF89E698E120
:1000C000215080409040E1F700C0000082B38F775C
:1000D00082BB2FEF89E698E1215080409040E1F704
:1000E00000C0000082B38F7B82BB2FEF89E698E1CE
:1000F000215080409040E1F700C0000082B38F7D26
:1001000082BB2FEF89E698E1215080409040E1F7D3
:0A01100000C00000B7CFF894FFCF45
:00000001FF
