:020000040800F2
:10000000002800204D0200089D0200089D02000803
:100010009D0200089D0200089D02000800000000EB
:100020000000000000000000000000009D02000829
:100030009D020008000000009D0200089D020008CB
:100040009D0200089D0200089D0200089D02000814
:100050009D0200089D020008210200089D02000880
:100060009D0200089D0200089D0200089D020008F4
:100070009D0200089D0200089D0200089D020008E4
:100080009D0200089D0200089D0200089D020008D4
:100090009D0200089D0200089D0200089D020008C4
:1000A0009D0200089D0200089D0200089D020008B4
:1000B0009D0200089D0200089D0200089D020008A4
:1000C0009D0200089D0200089D0200089D02000894
:1000D0009D0200089D0200089D0200089D02000884
:1000E0009D0200089D020008000000009D0200081B
:1000F0009D0200089D0200089D0200089D02000864
:100100009D0200089D0200089D0200089D02000853
:100110009D0200089D0200089D0200089D02000843
:100120009D0200089D0200089D0200089D02000833
:1001300010B5054C237833B9044B13B10448AFF321
:1001400000800123237010BD00000020000000008B
:10015000E802000808B5034B1BB103490348AFF39D
:10016000008008BD0000000004000020E802000834
:1001700080B400AF074B1B68064A43F001031360CD
:10018000044B1B68034A43F00403136000BFBD46E1
:1001900080BC70471810024080B400AF0A4B1B6847
:1001A000094A43F001031360084B1B68074A43F0F8
:1001B00001031360064B1B68054A43F040031360BC
:1001C00000BFBD4680BC70470804014000040140E8
:1001D00000E100E080B400AF0A4B1B68094A43F01D
:1001E00004031360084B1B68074A23F48003136061
:1001F000054B1B68044A43F40013136000BFBD465F
:1002000080BC7047000801400408014080B500AF81
:10021000FFF7AEFFFFF7DEFFFFF7BEFFFEE70000D0
:1002200080B400AF074B1B68064A83F40053136089
:10023000054B1B68044A43F00103136000BFBD4631
:1002400080BC70470C080140140401400D488546ED
:10025000AFF300800C480D490D4A002302E0D4584A
:10026000C4500433C4188C42F9D30A4A0A4C002300
:1002700001E013600432A242FBD300F011F8FFF753
:10028000C5FFFEE70028002000000020000000203D
:1002900008030008000000201C000020FEE700000A
:1002A00070B500260C4D0D4C641BA410A64209D15C
:1002B00000F01AF800260A4D0A4C641BA410A6424E
:1002C00005D170BD55F8043B98470136EEE755F867
:1002D000043B98470136F2E70003000800030008DA
:1002E0000003000804030008F8B500BFF8BC08BC10
:1002F0009E467047F8B500BFF8BC08BC9E467047E4
:04030000550100089B
:0403040031010008BB
:040000050800024DA0
:00000001FF
