:100000000C942A000C9434000C9434000C943400AA
:100010000C9434000C9434000C9434000C94340090
:100020000C9434000C9434000C9434000C94340080
:100030000C9434000C9434000C9434000C94340070
:100040000C9434000C9434000C9434000C94340060
:100050000C94340011241FBECFE5D8E0DEBFCDBF25
:100060000E9449000C9493000C94000084B38460B7
:1000700084BB84B3886084BB84B3806184BB84B355
:10008000806284BB84B3806484BB84B3806884BB97
:1000900008950E94360020E042C085B3886085BB89
:1000A00085B38B7F85BB85B38F7085BB95B38DEC96
:1000B000289F812D112486958695869530E1839F12
:1000C000A0011124492B45BB4FEF93EC39E041507F
:1000D00090403040E1F700C0000095B39F7095BBA1
:1000E00095B3946095BB95B3977F95BB35B3880F57
:1000F000982F990F990F980F422F491B942F40E189
:10010000949FC0011124832B85BB8FEF93EC39E0C2
:10011000815090403040E1F700C000002F5F24364E
:0A01200008F4BBCFB8CFF894FFCF6E
:00000001FF
