S00C00004C6162322E73726563D7
S11300000C942A000C946E000C948D000C94AC009B
S11300100C9434000C9434000C9434000C9434008C
S11300200C9434000C9434000C9434000C9434007C
S11300300C9434000C9434000C9434000C9434006C
S11300400C9434000C9434000C9434000C9434005C
S11300500C94340011241FBECFE5D8E0DEBFCDBF21
S11300600E9460000C94CB000C94000087B38B7F3B
S113007087BB81B3877F81BB81B3806281BB81B33E
S1130080806481BB81B3806881BB089585B781603A
S113009085BF85B78D7F85BF85B7886085BF85B7E8
S11300A0846085BF84B78F7B84BF8BB780688BBF28
S11300B08BB780648BBF8BB780628BBF78940895B5
S11300C00E9436000E94460082B38F7782BB82B3BF
S11300D08F7B82BB82B38F7D82BBF6CF1F920F9240
S11300E00FB60F9211242F938F939F9382B3806244
S11300F082BB2FEF83ED90E3215080409040E1F7E5
S113010000C0000082B38F7D82BB9F918F912F919D
S11301100F900FBE0F901F9018951F920F920FB65D
S11301200F9211242F938F939F9382B3806482BB89
S11301302FEF83ED90E3215080409040E1F700C021
S1130140000082B38F7B82BB9F918F912F910F9080
S11301500FBE0F901F9018951F920F920FB60F921B
S113016011242F938F939F9382B3806882BB2FEFC8
S113017083ED90E3215080409040E1F700C00000FF
S113018082B38F7782BB9F918F912F910F900FBE77
S10D01900F901F901895F894FFCF0C
S9030000FC
