:020000040800F2
:100000000028002059020008A9020008A9020008DF
:10001000A9020008A9020008A902000800000000C7
:10002000000000000000000000000000A90200081D
:10003000A902000800000000A9020008A9020008A7
:10004000A9020008A9020008A9020008A9020008E4
:10005000A9020008A9020008A9020008A9020008D4
:10006000A9020008A9020008A9020008A9020008C4
:10007000A9020008A9020008A9020008A9020008B4
:10008000A9020008A9020008A9020008A9020008A4
:10009000A9020008A9020008A9020008A902000894
:1000A000A9020008A9020008A9020008A902000884
:1000B000A9020008A9020008A9020008A902000874
:1000C000A9020008A9020008A9020008A902000864
:1000D000A9020008A9020008A9020008A902000854
:1000E000A9020008A902000800000000A9020008F7
:1000F000A9020008A9020008A9020008A902000834
:10010000A9020008A9020008A9020008A902000823
:10011000A9020008A9020008A9020008A902000813
:10012000A9020008A9020008A9020008A902000803
:1001300010B5054C237833B9044B13B10448AFF321
:1001400000800123237010BD00000020000000008B
:10015000F402000808B5034B1BB103490348AFF391
:10016000008008BD0000000004000020F402000828
:1001700080B483B000AF344B1B68334A43F08073C4
:100180001360314B1B68304A23F0007313602E4B11
:100190001B682D4A43F0806313602B4B1B682A4A6F
:1001A00023F000631360294B1B68284A43F00403C3
:1001B0001360274B1B68264A23F480031360224BED
:1001C0001B68214A23F0010313601F4B1B681E4A62
:1001D00023F0020313601C4B1B681B4A43F480632B
:1001E0001360194B1B68184A43F400631360164BE5
:1001F0001B68154A43F400531360154B1B68144ADF
:1002000043F400131360134B1B68124A43F400536A
:10021000136000237B6002E07B6801337B607B68B6
:10022000B3F5FA6FF8D30B4B1B680A4A23F400535B
:10023000136000233B6002E03B6801333B603B6896
:10024000B3F5FA6FF8D3DEE704100240181002404D
:10025000040801400C0801400D488546AFF30080BA
:100260000C480D490D4A002302E0D458C450043311
:10027000C4188C42F9D30A4A0A4C002301E01360E7
:100280000432A242FBD300F011F8FFF771FFFEE742
:1002900000280020000000200000002014030008B7
:1002A000000000201C000020FEE7000070B50026C2
:1002B0000C4D0D4C641BA410A64209D100F01AF895
:1002C00000260A4D0A4C641BA410A64205D170BD3D
:1002D00055F8043B98470136EEE755F8043B98473C
:1002E0000136F2E70C0300080C0300080C030008B9
:1002F00010030008F8B500BFF8BC08BC9E46704764
:0C030000F8B500BFF8BC08BC9E46704772
:04030C00550100088F
:0403100031010008AF
:040000050800025994
:00000001FF
