:020000040800F2
:100000000028002081020008D1020008D102000867
:10001000D1020008D1020008D1020008000000004F
:10002000000000000000000000000000D1020008F5
:10003000D102000800000000D1020008D10200082F
:10004000D1020008D1020008D1020008D102000844
:10005000D1020008D1020008D1020008D102000834
:10006000D1020008D1020008D1020008D102000824
:10007000D1020008D1020008D1020008D102000814
:10008000D1020008D1020008D1020008D102000804
:10009000D1020008D1020008D1020008D1020008F4
:1000A000D1020008D1020008D1020008D1020008E4
:1000B000D1020008D1020008D1020008D1020008D4
:1000C000D1020008D1020008D1020008D1020008C4
:1000D000D1020008D1020008D1020008D1020008B4
:1000E000D1020008D102000800000000D10200087F
:1000F000D1020008D1020008D1020008D102000894
:10010000D1020008D1020008D1020008D102000883
:10011000D1020008D1020008D1020008D102000873
:10012000D1020008D1020008D1020008D102000863
:1001300010B5054C237833B9044B13B10448AFF321
:1001400000800123237010BD00000020000000008B
:100150001C03000808B5034B1BB103490348AFF368
:10016000008008BD00000000040000201C030008FF
:1001700080B483B000AF3D4B1B683C4A43F08073B2
:1001800013603A4B1B68394A23F000731360374BF6
:100190001B68364A43F080631360344B1B68334A54
:1001A00023F000631360324B1B68314A43F00403B1
:1001B0001360304B1B682F4A23F4800313602B4BD2
:1001C0001B682A4A23F001031360284B1B68274A47
:1001D00043F002031360254B1B68244A43F48063F9
:1001E0001360224B1B68214A43F4006313601F4BCA
:1001F0001B681E4A43F4005313601C4B1B681B4AC8
:1002000043F480131360194B1B68184A43F400230E
:100210001360184B1B68174A43F400131360164B06
:100220001B68154A43F080731360144B1B68134A14
:1002300043F40053136000237B6002E07B680133CA
:100240007B607B68B3F5FA6FF8D30C4B1B680B4AE5
:1002500023F40053136000233B6002E03B6801334A
:100260003B603B68B3F5FA6FF8D3DEE70410024059
:100270001810024004080140001002400C08014020
:100280000D488546AFF300800C480D490D4A002308
:1002900002E0D458C4500433C4188C42F9D30A4A3B
:1002A0000A4C002301E013600432A242FBD300F0A9
:1002B00011F8FFF75DFFFEE7002800200000002096
:1002C000000000203C030008000000201C0000206B
:1002D000FEE7000070B500260C4D0D4C641BA41009
:1002E000A64209D100F01AF800260A4D0A4C641BF8
:1002F000A410A64205D170BD55F8043B98470136BD
:10030000EEE755F8043B98470136F2E7340300085E
:10031000340300083403000838030008F8B500BFB0
:10032000F8BC08BC9E467047F8B500BFF8BC08BCD6
:040330009E4670472E
:040334005501000867
:040338003101000887
:04000005080002816C
:00000001FF
